:100000000C943E000C945B000C945B000C945B0021
:100010000C945B000C945B000C945B000C945B00F4
:100020000C945B000C945B000C945B000C945B00E4
:100030000C945B000C945B000C945B000C945B00D4
:100040000C945B000C945B000C945B000C945B00C4
:100050000C945B000C945B000C945B000C945B00B4
:100060000C945B000C945B000C945B000C945B00A4
:100070000C945B000C945B000C945B0011241FBE7D
:10008000CFEFD0E1DEBFCDBF12E0A0E0B1E0E6EB04
:10009000F3E102C005900D92AC31B107D9F712E03F
:1000A000ACE1B2E001C01D92A232B107E1F70E94BB
:1000B000F4000C94D9090C9400003F9A479A000070
:1000C000479880EA8A95F1F7479A3F98379BFECF89
:1000D0003F9A479A82E38A95F1F7089598E03F9A0C
:1000E000479880FF02C0479A01C047982AE02A95A6
:1000F000F1F7479A915011F08695F1CF479A0895FC
:1001000098E080E03F9A8695479A47980000479A82
:100110003F98379B02C0806801C08F772AE02A95FC
:10012000F1F7915079F73F9A08951F930E945D006F
:100130008CEC0E946E0084E40E946E0083EE97E5D2
:100140000197F1F700C000000E945D008CEC0E9456
:100150006E008EEB0E946E000E948000182F0E949D
:100160008000382F20E0612F70E0622B732B80E03D
:1001700090E00E94820420E030E040E85DE30E94CD
:10018000060320E030E040E251E40E94060320E054
:1001900030E040E05FE30E94A8020E943201CB0100
:1001A0001F9108959091C00095FFFCCF8093C600E9
:1001B00080E090E0089528E92093C1009C01442745
:1001C00037FD4095542F84E0220F331F441F551FE5
:1001D0008A95D1F760E070E081EE90E00E94E4063D
:1001E00021502093C4000895CF93DF9380E09BE4D7
:1001F0000E94DB0085E091E090931F0280931E0235
:10020000C0E0D1E08FEF9FEFACE281509040A04082
:10021000E1F700C000008FEF9FEFACE2815090400B
:10022000A040E1F700C000008FEF9FEFACE28150EB
:100230009040A040E1F700C000000E94950000D06F
:1002400000D0ADB7BEB71296DC93CE93119714963B
:100250009C938E9313970E943D070F900F900F90E1
:100260000F90D0CFEF92FF920F931F937B018C01E1
:1002700020E030E040E05FE40E94000487FD11C010
:10028000C801B70120E030E040E05FE40E94D50201
:100290000E9430049B01AC01205030404040504847
:1002A00006C0C801B7010E9430049B01AC01B9012E
:1002B000CA011F910F91FF90EF900895A0E0B0E068
:1002C000E4E6F1E00C940A07FC01EA018081823047
:1002D00008F438C1DB019C91923008F430C18430BD
:1002E00059F4943009F02EC1918111968C91119797
:1002F000981709F021C126C1943009F420C1923029
:10030000B1F4823009F01EC1CA01AF0128E0DA0160
:100310000D90AD01DC010D92CD012150C1F7DB0143
:1003200011968C9111979181892389830AC182301A
:1003300009F405C1C280D380DB0112966D907C90D8
:10034000139724813581468157811496ED90FD9055
:100350000D911C911797C601861997095C0197FFAB
:1003600004C0AA24BB24A81AB90AB0E2AB16B1048F
:100370000CF061C0181619066CF5370148010A2CFB
:1003800004C096948794779467940A94D2F781E096
:1003900090E0A0E0B0E00A2C04C0880F991FAA1FCB
:1003A000BB1F0A94D2F70197A109B1098E219F21A1
:1003B000A023B123EE24FF248701E3940097A10535
:1003C000B10519F4EE24FF248701E628F72808294F
:1003D00019293CC00097D1F1CA0CDB1C39014A0134
:1003E0000A2C04C096948794779467940A94D2F761
:1003F00081E090E0A0E0B0E00A2C04C0880F991FD3
:10040000AA1FBB1F0A94D2F70197A109B109822341
:100410009323A423B52321E030E040E050E000978F
:10042000A105B10519F420E030E0A90126293729FA
:10043000482959290BC06C147D0424F4EE24FF24B0
:10044000870104C0630120E030E0A9018181FB0144
:100450009181891709F445C0882349F0D801C70163
:10046000821B930BA40BB50B9C01AD0104C02E198C
:100470003F09400B510B57FD04C01982DB82CA8231
:100480000BC081E08983DB82CA825095409530950C
:1004900021953F4F4F4F5F4F2C833D834E835F83AA
:1004A0000DC0880F991FAA1FBB1F8C839D83AE832D
:1004B000BF838A819B8101979B838A838C819D81E5
:1004C000AE81BF819C01AD01215030404040504081
:1004D0002F3FEFEF3E07EFEF4E07EFE35E0708F326
:1004E0000BC08983DB82CA822E0D3F1D401F511F26
:1004F0002C833D834E835F8383E088832C813D8101
:100500004E815F8157FF1DC0DA01C9018170907073
:10051000A070B0705695479537952795822B932BF1
:10052000A42BB52B8C839D83AE83BF838A819B8153
:1005300001969B838A8305C0E3E1F1E003C0FB01E0
:1005400001C0FE01CF01CDB7DEB7EEE00C94260767
:10055000A0E2B0E0EEEAF2E00C94120769837A833D
:100560008B839C832D833E834F83588789E0E82EBD
:10057000F12CEC0EFD1ECE010196B7010E94220661
:100580008E010F5E1F4FCE010596B8010E94220614
:10059000C701B801AE01475E5F4F0E945E010E9435
:1005A0005405A096E6E00C942E07A0E2B0E0EBED37
:1005B000F2E00C94120769837A838B839C832D83EA
:1005C0003E834F8358878E01075F1F4FCE010196F0
:1005D000B8010E94220691E1E92EF12CEC0EFD1EDD
:1005E000CE010596B7010E9422068A8991E08927EB
:1005F0008A8BC801B701AE01475E5F4F0E945E0162
:100600000E945405A096E6E00C942E07A0E2B0E00C
:10061000ECE0F3E00C94060769837A838B839C8378
:100620002D833E834F835887CE010196BE01675FBD
:100630007F4F0E942206CE010596BE016F5E7F4F5E
:100640000E9422069985923078F089898230C0F024
:10065000943019F4823041F4CBC0843019F49230D4
:1006600079F4C6C0923051F481E02A859A8929171D
:1006700009F480E08A87CE010996BCC0823051F42B
:1006800081E02A859A89291709F480E08A8BCE01B6
:100690004196B0C06D847E848F849888ED88FE88F2
:1006A0000F89188DE0E2F0E080E090E0DC01AA2400
:1006B000BB24650120E030E0A901B30161707070D6
:1006C00061157105D1F02E0D3F1D401F511F150101
:1006D0002601280E391E4A1E5B1E81E090E0A0E034
:1006E000B0E02E153F054007510718F080E090E07C
:1006F000DC01820D931DA41DB51DAA0CBB1CCC1CD6
:10070000DD1C17FF09C061E0262E312C412C512C35
:10071000A228B328C428D528319749F0EE0CFF1C35
:10072000001F111F9694879477946794C6CF6B89A6
:100730007C89EB85FC856E0F7F1F6E5F7F4F7C8F02
:100740006B8F61E0EA857A89E71709F460E06A8FC8
:100750006B8D7C8D10C0FC01E170F070309729F03A
:1007600056954795379527955068B695A7959795CF
:1007700087956F5F7F4FB7FDEECF0CC0880F991F35
:10078000AA1FBB1F57FD8160220F331F441F551F37
:10079000615070408030E0E09E07E0E0AE07E0E4AA
:1007A000BE0760F36B8F7C8F6FE7E62EF12C012D77
:1007B000112DE822F9220A231B2360E4E616F10436
:1007C0000105110561F487FD0AC0211531054105B8
:1007D000510529F0805C9F4FAF4FBF4F80788D8FC0
:1007E0009E8FAF8FB8A383E0898FCE01499602C058
:1007F00083E191E00E945405A096E2E10C94220767
:10080000A8E1B0E0E6E0F4E00C94120769837A8393
:100810008B839C832D833E834F8358878E01075F94
:100820001F4FCE010196B8010E94220681E1E82EF9
:10083000F12CEC0EFD1ECE010596B7010E9422069A
:100840008985823040F08989823028F0C801B7015B
:100850000E948B0601C08FEF6896E6E00C942E078D
:10086000ACE0B0E0E6E3F4E00C94160769837A8329
:100870008B839C83CE010196BE016B5F7F4F0E94EC
:1008800022068D81823081F1823070F1843021F432
:100890008E81882369F10AC02F81388537FD24C0F5
:1008A0006E812F3131053CF0662311F120E030E0FC
:1008B00040E050E821C08EE190E0821B930B298537
:1008C0003A854B855C8504C05695479537952795A5
:1008D0008A95D2F7662381F0509540953095219501
:1008E0003F4F4F4F5F4F08C020E030E0A90104C0E8
:1008F0002FEF3FEF4FEF5FE7B901CA012C96E2E01F
:100900000C943207A8E0B0E0E8E8F4E00C9410079B
:100910007B018C011A82611571058105910519F41D
:1009200082E089835FC083E089838EE1C82ED12C69
:10093000DC82CB82ED82FE820F831887C801B7016B
:100940000E94FA04FC013197F7FF3AC0AA27BB279F
:10095000AE1BBF0B21E030E040E050E00A2E04C0A7
:10096000220F331F441F551F0A94D2F721503040E5
:10097000404050402E213F214023512361E070E050
:1009800080E090E0211531054105510519F460E042
:1009900070E0CB0104C016950795F794E794AA95EB
:1009A000D2F7E62AF72A082B192BED82FE820F8355
:1009B00018878EE190E08E1B9F0B9C838B8312C067
:1009C000309781F00E2E04C0EE0CFF1C001F111F8B
:1009D0000A94D2F7ED82FE820F831887CE1ADF0ABF
:1009E000DC82CB82CE0101960E9454052896E8E075
:1009F0000C942C07AF92BF92CF92DF92EF92FF92AE
:100A00000F931F937B018C0180E0E81680E0F806CD
:100A100081E0080780E0180758F4EFEFEE16F104C4
:100A20000105110509F090F480E090E0DC0117C0A9
:100A3000F0E0EF16F0E0FF06F0E00F07F1E01F072F
:100A400050F480E190E0A0E0B0E009C088E090E0E0
:100A5000A0E0B0E004C088E190E0A0E0B0E020E2D7
:100A600030E040E050E0281B390B4A0B5B0B57018C
:100A7000680104C0D694C794B794A7948A95D2F716
:100A8000D601C501855E9E4FFC018081281B31097E
:100A900041095109C9011F910F91FF90EF90DF901B
:100AA000CF90BF90AF900895EF92FF920F931F9356
:100AB000CF93DF93FC012481358146815781618189
:100AC0008081823020F44061EFEFF0E0A3C08430F9
:100AD00009F49BC0823009F492C02115310541050B
:100AE000510509F48FC00280F381E02D8FEFE238C9
:100AF000F8070CF05AC0C2E8DFEFCE1BDF0BCA319B
:100B0000D1056CF579018A010C2E04C01695079564
:100B1000F794E7940A94D2F781E090E0A0E0B0E087
:100B20000C2E04C0880F991FAA1FBB1F0A94D2F76E
:100B30000197A109B10982239323A423B52321E0BE
:100B400030E040E050E00097A105B10519F420E045
:100B500030E0A9012E293F29402B512B03C020E072
:100B600030E0A901DA01C9018F779070A070B070F0
:100B700080349105A105B10539F427FF09C0205C37
:100B80003F4F4F4F5F4F04C0215C3F4F4F4F5F4F70
:100B9000E1E0F0E0203080E0380780E0480780E4C2
:100BA000580728F5E0E0F0E022C0E038F1056CF5E8
:100BB000E158FF4FDA01C9018F779070A070B070D3
:100BC00080349105A105B10539F427FF09C0205CE7
:100BD0003F4F4F4F5F4F04C0215C3F4F4F4F5F4F20
:100BE00057FF05C05695479537952795319687E06D
:100BF00056954795379527958A95D1F70BC0E0E034
:100C0000F0E005C0E0E0F0E005C0EFEFF0E020E04C
:100C100030E0A9018E2F879588278795942F9F779D
:100C2000679566276795E695E22EA92FA82BFE2FDC
:100C3000F62B622F732F8A2F9F2FCDB7DEB7E6E0FA
:100C40000C942E07DC01FB012C9111963C9111971D
:100C500012968C911297482F4F7750E0982F991F3A
:100C60009927991F13966C911397862F880F892BBC
:100C700090E0661F6627661F6183009739F521158E
:100C800031054105510511F482E029C082E89FEF4A
:100C90009383828367E0220F331F441F551F6A9599
:100CA000D1F783E0808309C0220F331F441F551FF3
:100CB00082819381019793838283203080E038077B
:100CC00080E0480780E4580778F320C08F3F910503
:100CD00079F4211531054105510519F484E080832B
:100CE000089544FF03C081E0808310C010820EC0CD
:100CF0008F5790409383828383E0808387E0220F25
:100D0000331F441F551F8A95D1F7506424833583C0
:100D1000468357830895FC01DB019081923008F4EB
:100D200049C08C91823008F445C0943051F46181FF
:100D30008430B1F511962C91119730E0261B3109C2
:100D400041C0843021F0923041F48230B1F11196EB
:100D50008C9111978823A1F12DC06181823001F11E
:100D600011968C9111976817D9F4228133811296CC
:100D70008D919C9113978217930794F02817390748
:100D8000BCF0248135814681578114968D919D91C7
:100D90000D90BC91A02D82179307A407B50718F4F6
:100DA000662341F00DC0281739074A075B0728F46E
:100DB000662331F021E030E005C020E030E002C0E1
:100DC0002FEF3FEFC9010895A1E21A2EAA1BBB1B0A
:100DD000FD010DC0AA1FBB1FEE1FFF1FA217B30707
:100DE000E407F50720F0A21BB30BE40BF50B661F1D
:100DF000771F881F991F1A9469F7609570958095E1
:100E000090959B01AC01BD01CF0108952F923F92B7
:100E10004F925F926F927F928F929F92AF92BF920A
:100E2000CF92DF92EF92FF920F931F93CF93DF93B6
:100E3000CDB7DEB7CA1BDB0B0FB6F894DEBF0FBE13
:100E4000CDBF09942A88398848885F846E847D8460
:100E50008C849B84AA84B984C884DF80EE80FD8062
:100E60000C811B81AA81B981CE0FD11D0FB6F894D8
:100E7000DEBF0FBECDBFED010895A0E0B0E0E3E41A
:100E8000F7E00C941607FE013596619171918091FF
:100E90001E0290911F02AF010E9452072096E2E0CD
:100EA0000C943207ACE0B0E0E8E5F7E00C940607FC
:100EB0006C011B018A01FC0117821682838181FF6C
:100EC000D1C12E010894411C511CF6019381F101FE
:100ED00093FD859193FF81911F01882309F4BEC181
:100EE000853239F493FD859193FF81911F018532FD
:100EF00029F490E0B6010E944F09E7CFEE24FF24C9
:100F000020E02032B0F48B3269F08C3228F4803249
:100F100051F0833271F40BC08D3239F0803349F4D3
:100F200021602CC02260246029C0286027C0206175
:100F300025C027FD2CC0382F30533A3098F426FFB7
:100F400008C08E2D880FE82EEE0CEE0CE80EE30E96
:100F500015C08F2D880FF82EFF0CFF0CF80EF30E26
:100F600020620CC08E3221F426FD78C1206406C0B8
:100F70008C3611F4206802C0883649F4F10193FDE3
:100F8000859193FF81911F01882309F0BACF982F93
:100F90009554933018F09052933028F40C5F1F4F03
:100FA000FFE3F9830DC0833631F0833771F0833569
:100FB00009F060C022C0F801808189830E5F1F4F55
:100FC000420171E0A72EB12C16C062E0662E712C92
:100FD000600E711EF8018080918026FF03C06E2D87
:100FE00070E002C06FEF7FEFC4012C870E944409BC
:100FF0005C0183012C852F7717C052E0652E712C80
:10100000600E711EF8018080918026FF03C06E2D56
:1010100070E002C06FEF7FEFC4012C870E94390996
:101020005C012C852068830123FD20C008C080E27C
:1010300090E0B6012C870E944F09FA942C858F2DE1
:1010400090E0A816B90698F311C0F40127FD859128
:1010500027FF81914F0190E0B6012C870E944F0934
:101060002C85F110FA940894A108B108A114B104D8
:1010700061F7F1C0843611F0893649F527FF08C0C1
:10108000F80160817181828193810C5F1F4F09C0DB
:10109000F80160817181882777FD8095982F0E5F18
:1010A0001F4F4FE6B42EB22297FF09C0909580954E
:1010B000709561957F4F8F4F9F4FF0E8BF2AA20137
:1010C0002AE030E00E947B09782E741845C08537ED
:1010D00031F43FEEB32EB2222AE030E025C099EF82
:1010E000B92EB2228F36C1F0803720F4883509F04E
:1010F000B5C00DC0803721F0883709F0AFC002C0FD
:1011000020E1B22AB4FE0BC084E0B82A08C0B4FEC5
:1011100009C0E6E0BE2A06C028E030E005C020E1B4
:1011200030E002C020E132E0B7FE08C0F801608183
:101130007181828193810C5F1F4F07C0F80160812C
:10114000718180E090E00E5F1F4FA2010E947B0939
:10115000782E7418FFE7BF22B6FE0BC02EEFB22226
:101160007E1438F4B4FE07C0B2FC05C08FEEB8227E
:1011700002C0A72C01C0AE2C8B2D90E0B4FE0DC098
:10118000FE01E70DF11D2081203319F4E9EEBE22A6
:1011900009C0A394B2FE06C004C086789070009780
:1011A00009F0A3948B2C9924B3FC14C0B0FE0FC09B
:1011B000AF1428F4E72CEF0CEA18AF2C08C0E72C8A
:1011C00006C080E290E0B6010E944F09A394AF14DC
:1011D000C0F304C0AF1410F4FA1801C0FF2484FE59
:1011E0000FC080E390E0B6010E944F0982FE1FC04D
:1011F00081FE03C088E590E010C088E790E00DC054
:10120000C40186789070009791F081FC02C080E262
:1012100001C08BE2B7FC8DE290E0B6010E944F095D
:1012200006C080E390E0B6010E944F09EA947E1464
:10123000C0F37A94F201E70DF11D808190E0B601D0
:101240000E944F097720A9F706C080E290E0B6011E
:101250000E944F09FA94FF20C1F737CEF60126818C
:10126000378102C02FEF3FEFC9012C96E2E10C94C9
:101270002207FC010590615070400110D8F780955D
:1012800090958E0F9F1F0895FC0161507040019052
:101290000110D8F7809590958E0F9F1F08950F939A
:1012A0001F93CF93DF938C01EB018B8181FF1BC0D8
:1012B00082FF0DC02E813F818C819D8128173907C7
:1012C00064F4E881F9810193F983E88306C0E88535
:1012D000F985802F0995009731F48E819F810196C1
:1012E0009F838E8302C00FEF1FEFC801DF91CF9164
:1012F0001F910F910895FA01AA27283051F120314A
:1013000081F1E8946F936E7F6E5F7F4F8F4F9F4F99
:10131000AF4FB1E03ED0B4E03CD0670F781F891FDB
:101320009A1FA11D680F791F8A1F911DA11D6A0FA9
:10133000711D811D911DA11D20D009F468943F915C
:101340002AE0269F11243019305D3193DEF6CF015B
:101350000895462F4770405D4193B3E00FD0C9F721
:10136000F6CF462F4F70405D4A3318F0495D31FD8E
:101370004052419302D0A9F7EACFB4E0A6959795E1
:10138000879577956795BA95C9F7009761057105B7
:1013900008959B01AC010A2E069457954795379501
:1013A0002795BA95C9F7620F731F841F951FA01D5B
:0613B0000895F894FFCF40
:1013B60025640D0A000000000200000000D20000B3
:1013C600000000000000000000000000010202030F
:1013D60003030304040404040404040505050505C5
:1013E60005050505050505050505050606060606A2
:1013F6000606060606060606060606060606060687
:101406000606060606060606060606070707070771
:101416000707070707070707070707070707070756
:101426000707070707070707070707070707070746
:101436000707070707070707070707070707070736
:101446000707070707070707070707080808080821
:101456000808080808080808080808080808080806
:1014660008080808080808080808080808080808F6
:1014760008080808080808080808080808080808E6
:1014860008080808080808080808080808080808D6
:1014960008080808080808080808080808080808C6
:1014A60008080808080808080808080808080808B6
:1014B60008080808080808080808080808080808A6
:0C14C600080808080808080808080800C2
:00000001FF
