:100000000C943E000C945D000C945B000C945B001F
:100010000C945B000C945B000C945B000C945B00F4
:100020000C945B000C945B000C945B000C945B00E4
:100030000C945B000C945B000C945B000C945B00D4
:100040000C945B000C945B000C945B000C945B00C4
:100050000C945B000C945B000C945B000C945B00B4
:100060000C945B000C945B000C945B000C945B00A4
:100070000C945B000C945B000C945B0011241FBE7D
:10008000CFEFD0E1DEBFCDBF11E0A0E0B1E0E8EE00
:10009000F1E002C005900D92AA31B107D9F711E045
:1000A000AAE1B1E001C01D92A132B107E1F70E94BF
:1000B00088000C94F2000C9400001F920F920FB66F
:1000C0000F9211242F933F934F935F936F937F93DE
:1000D0008F939F93AF93BF93EF93FF930DB407FE5E
:1000E000FDCF8EB580931A0190E00E94BF00FF9172
:1000F000EF91BF91AF919F918F917F916F915F91A0
:100100004F913F912F910F900FBE0F901F90189518
:10011000DF93CF93CDB7DEB76A970FB6F894DEBF03
:100120000FBECDBFDE011196E0E0F1E08AE1019063
:100130000D928150E1F7F89480EA84B981E58CBD95
:1001400082E08093690081E08DBB78948AE190E041
:10015000FE0131969F015E2F432F07C080818EBD27
:100160000DB407FEFDCF3196C9019C0121503040EE
:100170000097A1F78AE190E0E52FF42FF6CF609188
:100180001D0170911E010E94C60008950F931F93D8
:10019000CF93DF938C01EB018B8181FF1BC082FF2A
:1001A0000DC02E813F818C819D812817390764F411
:1001B000E881F9810193F983E88306C0E885F98530
:1001C000802F0995009731F48E819F8101969F833E
:1001D0008E8302C00FEF1FEFC801DF91CF911F91F7
:0801E0000F910895F894FFCF80
:1001E80048656C6C6F2C2057686174277320796F91
:0A01F8007572204E616D653F000036
:00000001FF
