:1000000012C02CC02BC02AC0E6C228C027C026C000
:1000100026C028C223C022C021C020C01FC01EC0CD
:100020001DC01CC01BC011241FBECFE5D4E0DEBF25
:10003000CDBF10E0A0E6B0E0E2E7F8E002C0059036
:100040000D92A239B107D9F711E0A2E9B0E001C0E1
:100050001D92A538B107E1F76ED309C4D1CF1F9225
:100060000F920FB60F9211242F933F934F935F93EC
:100070006F937F938F939F93AF93BF93EF93FF9370
:10008000DF93CF93CDB7DEB780919400282F30E077
:10009000C901880F991F820F931F9C01220F331FE4
:1000A000220F331F820F931F8B569F4FFC018081BD
:1000B000882309F4B1C180919400282F30E0809109
:1000C0009400482F50E0CA01880F991F840F951F94
:1000D000AC01440F551F440F551F840F951F8756C1
:1000E0009F4FFC0140815181C901880F991F820FE8
:1000F000931F9C01220F331F220F331F820F931F68
:1001000085569F4FFC0151834083809160008F3F53
:1001100009F0C0C0809194008093600080919400A9
:10012000282F30E080919400482F50E0CA01880FBA
:10013000991F840F951FAC01440F551F440F551F85
:10014000840F951F85569F4FFC018081918144E665
:1001500050E0BA0178D3AC014C595F4FC901880F08
:10016000991F820F931F9C01220F331F220F331FF1
:10017000820F931F8F559F4FFC01518340838091C5
:100180009400282F30E080919400482F50E0CA015D
:10019000880F991F840F951FAC01440F551F440F02
:1001A000551F840F951F85569F4FFC0180819181BB
:1001B00044E650E0BA0147D3AB01CA01AC0141505B
:1001C0005040C901880F991F820F931F9C01220F75
:1001D000331F220F331F820F931F81569F4FFC0145
:1001E0005183408382E390E022E330E0F9012081F3
:1001F0002160FC01208380919400882F90E0880F7B
:10020000991F8E589F4FFC0180819181FC012081B4
:10021000622F20919400222F30E02E593F4FF90198
:100220002081422F50E021E030E002C0220F331F36
:100230004A95E2F7262BFC01208388E590E028E52B
:1002400030E0F90120812E7FFC01208342E550E05F
:1002500080919400282F30E0C901880F991F820FE8
:10026000931F9C01220F331F220F331F820F931FF6
:100270008F559F4FFC01808191818095FA01808389
:1002800089E590E029E530E0F90120812160FC0159
:100290002083C3C0809161008F3F09F0B8C0809176
:1002A00094008093610080919400282F30E0809129
:1002B0009400482F50E0CA01880F991F840F951FA2
:1002C000AC01440F551F440F551F840F951F8556D1
:1002D0009F4FFC018081918144E650E0BA01B3D286
:1002E000AC014C595F4FC901880F991F820F931FB2
:1002F0009C01220F331F220F331F820F931F8F5534
:100300009F4FFC015183408380919400282F30E05F
:1003100080919400482F50E0CA01880F991F840FE4
:10032000951FAC01440F551F440F551F840F951F97
:1003300085569F4FFC018081918144E650E0BA01CF
:1003400082D2AB01CA01AC0141505040C901880FB3
:10035000991F820F931F9C01220F331F220F331FFF
:10036000820F931F81569F4FFC01518340838091E0
:100370009400882F90E0880F991F8E589F4FFC01A2
:1003800080819181FC012081622F20919400222F95
:1003900030E02E593F4FF9012081422F50E021E0FB
:1003A00030E002C0220F331F4A95E2F7262BFC01F2
:1003B000208388E590E028E530E0F90120812F7B5B
:1003C000FC01208344E450E080919400282F30E029
:1003D000C901880F991F820F931F9C01220F331FA1
:1003E000220F331F820F931F8F559F4FFC01808177
:1003F000918180958451FA01808389E590E029E517
:1004000030E0F90120812064FC01208306C089E5E9
:1004100090E0FC01108201C00000809194008F5F89
:100420008093940080919400803110F01092940099
:100430008CE490E02DE13BEFFC0131832083CF91F0
:10044000DF91FF91EF91BF91AF919F918F917F913C
:100450006F915F914F913F912F910F900FBE0F9031
:100460001F9018951F920F920FB60F9211242F9381
:100470003F934F935F936F938F939F93EF93FF936C
:10048000DF93CF93CDB7DEB789E590E029E530E083
:10049000F90120812E7FFC01208388E590E028E58A
:1004A00030E0F90120812E7FFC01208380916000E3
:1004B000282F332727FD3095C901880F991F820FF8
:1004C000931F9C01220F331F220F331F820F931F94
:1004D00081569F4FFC0180819181009799F5809111
:1004E0006000992787FD9095880F991F8E589F4F20
:1004F000FC0180819181FC012081622F20916000AC
:10050000332727FD30952E593F4FF9012081422F87
:1005100050E021E030E0042E02C0220F331F0A9485
:10052000E2F720952623FC0120838FEF8093600063
:1005300082E390E022E330E0F90120812E7FFC018C
:10054000208339C082E590E02EE8FC01208389E514
:1005500090E029E530E0F90120812160FC01208351
:1005600080916000282F332727FD3095C901880F1F
:10057000991F820F931FAC01440F551F440F551F45
:10058000840F951F81569F4FFC0180819181AC01A2
:1005900041505040C901880F991F820F931F9C0141
:1005A000220F331F220F331F820F931F81569F4F3D
:1005B000FC0151834083CF91DF91FF91EF919F9197
:1005C0008F916F915F914F913F912F910F900FBE3F
:1005D0000F901F9018951F920F920FB60F92112433
:1005E0002F933F934F935F936F938F939F93EF93CB
:1005F000FF93DF93CF93CDB7DEB789E590E029E590
:1006000030E0F90120812F7BFC01208388E590E018
:1006100028E530E0F90120812F7BFC0120838091C7
:100620006100282F332727FD3095C901880F991FB6
:10063000820F931F9C01220F331F220F331F820F43
:10064000931F81569F4FFC0180819181009751F546
:1006500080916100992787FD9095880F991F8E588A
:100660009F4FFC0180819181FC012081622F2091AC
:100670006100332727FD30952E593F4FF901208126
:10068000422F50E021E030E0042E02C0220F331F41
:100690000A94E2F720952623FC0120838FEF8093B4
:1006A000610039C084E490E02EE8FC01208389E5F4
:1006B00090E029E530E0F90120812064FC012083ED
:1006C00080916100282F332727FD3095C901880FBD
:1006D000991F820F931FAC01440F551F440F551FE4
:1006E000840F951F81569F4FFC0180819181AC0141
:1006F00041505040C901880F991F820F931F9C01E0
:10070000220F331F220F331F820F931F81569F4FDB
:10071000FC0151834083CF91DF91FF91EF919F9135
:100720008F916F915F914F913F912F910F900FBEDD
:100730000F901F901895DF93CF9300D0CDB7DEB701
:10074000F89484E390E024E330E0F90120812F6302
:10075000FC01208381E390E021E330E0F901208176
:10076000206FFC01208387E390E027E330E0F9016C
:1007700020812F63FC01208381E390E021E330E0BE
:10078000F90120812160FC0120831A8219822DC089
:1007900029813A81C901880F991F820F931F9C01FB
:1007A000220F331F220F331F820F931F8B569F4F31
:1007B00021E0FC01208329813A81C901880F991F1A
:1007C000820F931F9C01220F331F220F331F820FB2
:1007D000931F87569F4F24EF31E0FC013183208324
:1007E00089819A8101969A83898389819A8180314E
:1007F000910574F283E590E022E0FC0120838EE411
:1008000090E02EE430E0F90120812260FC01208399
:1008100089E590E029E530E0F90120812460FC01C0
:1008200020838CE490E02DE13BEFFC0131832083B9
:1008300085E490E025E430E0F90120812260FC01AC
:1008400020837894FFCFAA1BBB1B51E107C0AA1FCE
:10085000BB1FA617B70710F0A61BB70B881F991F61
:100860005A95A9F780959095BC01CD010895F8940B
:02087000FFCFB8
:10087200FFFF05040302010005040302010007064D
:1008820005043500350035003500350035003800E7
:1008920038003800380038003800320032003200A8
:0208A200320022
:00000001FF
