:1000000012C02CC02BC02AC0F8C228C027C026C0EE
:1000100026C02AC223C022C021C020C01FC01EC0CB
:100020001DC01CC01BC011241FBECFE5D4E0DEBF25
:10003000CDBF10E0A0E6B0E0E0E7F8E002C0059038
:100040000D92A239B107D9F711E0A2E9B0E001C0E1
:100050001D92A538B107E1F77DD308C4D1CF1F9217
:100060000F920FB60F9211240F931F932F933F936C
:100070004F935F936F937F938F939F93AF93BF93B0
:10008000EF93FF93DF93CF93CDB7DEB7A2E3B0E05A
:10009000E2E3F0E0808181608C9380919400282FCE
:1000A00030E0C901880F991F820F931F9C01220F16
:1000B000331F220F331F820F931FFC01EB56FF4F9C
:1000C0008081882309F4A3C180919400482F50E0D7
:1000D00080919400282F30E0C901880F991F820F6A
:1000E000931F9C01220F331F220F331F820F931F78
:1000F000FC01E756FF4F60817181CA01880F991F8B
:10010000840F951F9C01220F331F220F331F820F74
:10011000931FFC01E556FF4F71836083809160005F
:100120008F3F09F0BDC08091940080936000809162
:100130009400082F10E080919400282F30E0C9012E
:10014000880F991F820F931F9C01220F331F220FCC
:10015000331F820F931FFC01E556FF4F8081918171
:1001600024E630E0B9016ED3AC014C595F4FC801B1
:10017000880F991F800F911F9C01220F331F220FA0
:10018000331F820F931FFC01EF55FF4F51834083B4
:1001900080919400082F10E080919400282F30E087
:1001A000C901880F991F820F931F9C01220F331FD3
:1001B000220F331F820F931FFC01E556FF4F8081F2
:1001C000918124E630E0B9013DD3CB01AC0141502F
:1001D0005040C801880F991F800F911F9C01220F6A
:1001E000331F220F331F820F931FFC01E156FF4F75
:1001F00051834083A2E3B0E0E2E3F0E080818260DB
:100200008C9380919400882F90E0880F991FFC01B7
:10021000EE58FF4FA081B1818C91482F80919400BE
:10022000882F90E0FC01EE59FF4F8081282F30E0AD
:1002300081E090E002C0880F991F2A95E2F7842B95
:100240008C93A8E5B0E0E8E5F0E080818E7F8C93A8
:10025000A2E5B0E080919400282F30E0C901880F1A
:10026000991F820F931F9C01220F331F220F331FF0
:10027000820F931FFC01EF55FF4F80819181809584
:100280008C93A9E5B0E0E9E5F0E0808181608C9392
:10029000A2E3B0E0E2E3F0E080818D7F8C93B7C011
:1002A000809161008F3F09F0AFC0809194008093EE
:1002B000610080919400082F10E080919400282F15
:1002C00030E0C901880F991F820F931F9C01220FF4
:1002D000331F220F331F820F931FFC01E556FF4F80
:1002E0008081918124E630E0B901ACD2AC014C5957
:1002F0005F4FC801880F991F800F911F9C01220F2B
:10030000331F220F331F820F931FFC01EF55FF4F46
:100310005183408380919400082F10E080919400D5
:10032000282F30E0C901880F991F820F931F9C016D
:10033000220F331F220F331F820F931FFC01E5563C
:10034000FF4F8081918124E630E0B9017BD2CB015F
:10035000AC0141505040C801880F991F800F911F78
:100360009C01220F331F220F331F820F931FFC01AA
:10037000E156FF4F5183408380919400882F90E095
:10038000880F991FFC01EE58FF4FA081B1818C911D
:10039000482F80919400882F90E0FC01EE59FF4F88
:1003A0008081282F30E081E090E002C0880F991F03
:1003B0002A95E2F7842B8C93A8E5B0E0E8E5F0E01D
:1003C00080818F7B8C93A4E4B0E080919400282FEF
:1003D00030E0C901880F991F820F931F9C01220FE3
:1003E000331F220F331F820F931FFC01EF55FF4F66
:1003F0008081918180958C93A9E5B0E0E9E5F0E0FA
:10040000808180648C9303C0E9E5F0E010828091E4
:1004100094008F5F8093940080919400803110F05D
:1004200010929400ECE4F0E081E89BEF91838083EC
:10043000A2E3B0E0E2E3F0E080818E7F8C93CF9185
:10044000DF91FF91EF91BF91AF919F918F917F913C
:100450006F915F914F913F912F911F910F910F904D
:100460000FBE0F901F9018951F920F920FB60F920C
:1004700011242F933F934F935F936F937F938F93A9
:100480009F93AF93BF93EF93FF93DF93CF93CDB73A
:10049000DEB7A2E3B0E0E2E3F0E0808182608C931B
:1004A000A2E3B0E0E2E3F0E080818D7F8C93A9E5E8
:1004B000B0E0E9E5F0E080818E7F8C93A8E5B0E0C4
:1004C000E8E5F0E080818E7F8C9380916000282F9A
:1004D000332727FD3095C901880F991F820F931F7D
:1004E0009C01220F331F220F331F820F931FFC0129
:1004F000E156FF4F808191810097B1F580916000B6
:10050000992787FD9095880F991FFC01EE58FF4FA2
:10051000A081B1818C91482F80916000992787FD3F
:100520009095FC01EE59FF4F8081282F30E081E04B
:1005300090E0022E02C0880F991F0A94E2F780957E
:1005400084238C938FEF80936000A2E3B0E0E2E31A
:10055000F0E0808182608C93A2E3B0E0E2E3F0E01F
:1005600080818D7F8C9336C0E2E5F0E080E8808367
:10057000A9E5B0E0E9E5F0E0808181608C938091AD
:100580006000482F552747FD5095CA01880F991FD5
:10059000840F951F9C01220F331F220F331F820FE0
:1005A000931FFC01E156FF4F80819181BC01615096
:1005B0007040CA01880F991F840F951F9C01220F5C
:1005C000331F220F331F820F931FFC01E156FF4F91
:1005D00071836083CF91DF91FF91EF91BF91AF91D4
:1005E0009F918F917F916F915F914F913F912F914B
:1005F0000F900FBE0F901F9018951F920F920FB67D
:100600000F9211242F933F934F935F936F937F9398
:100610008F939F93AF93BF93EF93FF93DF93CF930A
:10062000CDB7DEB7A9E5B0E0E9E5F0E080818F7BEA
:100630008C93A8E5B0E0E8E5F0E080818F7B8C93B7
:1006400080916100282F332727FD3095C901880F3D
:10065000991F820F931F9C01220F331F220F331FFC
:10066000820F931FFC01E156FF4F8081918100971B
:1006700041F580916100992787FD9095880F991F1A
:10068000FC01EE58FF4FA081B1818C91482F8091E1
:100690006100992787FD9095FC01EE59FF4F8081FD
:1006A000282F30E081E090E0022E02C0880F991FD1
:1006B0000A94E2F7809584238C938FEF80936100F6
:1006C00036C0E4E4F0E080E88083A9E5B0E0E9E545
:1006D000F0E0808180648C9380916100482F5527E1
:1006E00047FD5095CA01880F991F840F951F9C01E3
:1006F000220F331F220F331F820F931FFC01E1567D
:10070000FF4F80819181BC0161507040CA01880F08
:10071000991F840F951F9C01220F331F220F331F37
:10072000820F931FFC01E156FF4F71836083CF91CD
:10073000DF91FF91EF91BF91AF919F918F917F9149
:100740006F915F914F913F912F910F900FBE0F903E
:100750001F901895DF93CF9300D0CDB7DEB7F894F4
:10076000A4E3B0E0E4E3F0E080818F638C93A1E345
:10077000B0E0E1E3F0E08081806F8C93A7E3B0E02C
:10078000E7E3F0E080818F638C93A1E3B0E0E1E3E5
:10079000F0E0808181608C931A8219822DC02981BA
:1007A0003A81C901880F991F820F931F9C01220F64
:1007B000331F220F331F820F931FFC01EB56FF4F95
:1007C00081E0808329813A81C901880F991F820FB6
:1007D000931F9C01220F331F220F331F820F931F81
:1007E000FC01E756FF4F84EF91E09183808389817C
:1007F0009A8101969A83898389819A8180319105B2
:1008000074F2E3E5F0E082E08083AEE4B0E0EEE491
:10081000F0E0808182608C93A9E5B0E0E9E5F0E04A
:10082000808184608C93ECE4F0E081E89BEF91831D
:100830008083A5E4B0E0E5E4F0E0808182608C9301
:100840007894FFCFAA1BBB1B51E107C0AA1FBB1F97
:10085000A617B70710F0A61BB70B881F991F5A954C
:10086000A9F780959095BC01CD010895F894FFCF2C
:10087000FFFF05040302010005040302010007064F
:1008800005043500350035003500350035003800E9
:1008900038003800380038003800320032003200AA
:0208A000320024
:00000001FF
